:0600000000308A000C280C
:10000800FF000308F7000A08F8000A128A11792984
:100018000A128A110F280A128A11262101300A129F
:100028008A1146210A128A118F21F2000A128A11B6
:10003800622172080A128A115A210A128A11A330FF
:10004800F4005530F300F30B2728F40B27281A285F
:10020000FE00FE1F082983137E18831700080800CC
:100210000408FE0001308A007E088207003457344B
:1002200065346C3463346F346D3465342034743425
:100230006F342034473453345334203447347234C9
:100240006F34753470340D340A3400348316FF3043
:1002500086008701322183128B150B100B16831633
:10026000011708001F3099001815181283129817EB
:100270001816981283160C128C1218138312181366
:10028000831698129816071387170800F50050294F
:1002900075080A128A1109210A128A115A21F50ACF
:1002A00075080A128A1109210A128A1100380319E5
:1002B00008004829F600831203130C1E5B297608F8
:1002C00099000800831203138715A330F6005530F8
:1002D000F500F50B6929F60B6929831203138711C1
:1002E000A330F6005530F500F50B7429F60B742990
:1002F0000800831203130B1C812906160B1007112B
:1003000007168B1C88298B1071100619711487151C
:1003100078088A0077088300FF0E7F0E0900831299
:080320008C1E8F291A08080049
:02400E007A3FF7
:00000001FF
