:0600000000308A000E280A
:10000800FF00030883120317E1000A08E2000A123E
:100018008A11A0290A128A1111280A128A118D211F
:100028000A128A11782163000A128A112D210A12F4
:100038008A119100803A031925281108043A031DF2
:1000480018281108920093010A128A112D210A1208
:100058008A119100110A9000110892070318930A57
:10006800D5011008550203184A280A128A112D21B1
:100078000A128A1191005508143E84001108800064
:10008800110892070318930AD50A35280830D400B6
:1000980080280E300A128A115A210A128A118828D9
:1000A80001300A128A115A210A128A118828540822
:1000B800143E840000080A128A116F210A128A115C
:1000C8000317D40AFF30D600D70010085607D80007
:1000D80057080318570AD9005408DA00DB015B08EF
:1000E800803ADC005908803A5C02031D7D285808D4
:1000F8005A02031888285B281C084F3A03194D2810
:100108001F3A0319542866281A300A128A115A21EC
:060118000A128A111728EB
:10020000FE00FE1F082983137E18831700080800CC
:100210000408FE0001308A007E0882070034503452
:100220007234693476346134743465342034433440
:1002300061346C346C3400344F347534743420348D
:100240006F34663420346134723465346134003480
:100250000D340A340034203400348312031386181A
:100260002D2973300317DF00E0010130DF02031C8A
:10027000E00360085F04031D3529031386182D2948
:1002800008300317DD00DE01E630DF00E001013059
:10029000DF02031CE00360085F04031D472903100D
:1002A0000313861803140317DE0CDD0B44295E08C4
:1002B00083170800DD0065295D080A128A110921EB
:1002C0000A128A116F210317DD0A5D080A128A11CA
:1002D00009210A128A110038031908005C29DE007E
:1002E00003130C1E702903175E08031399000800FE
:1002F0001F308316990018151812831298171816B4
:10030000981283160C128C1218138312181383166A
:1003100098129816071387170800831686118614FB
:100320008711071187018312071183160616061518
:1003300006148117011783128B150B168B170800F3
:1003400003130B188B1DA82906120B100430870607
:10035000031762088A0061088300FF0E7F0E090000
:00000001FF
