:0600000000308A000C280C
:10000800FF000308F4000A08F5000A128A115129B2
:100018000A128A110F2886018316860106148701A1
:10002800831287010B168316011783128B170A1286
:100038008A113C2183120611630001300A128A11C9
:1000480020210A128A112130F1007630F000F00BDD
:0A0058002B28F10B2B28640021284F
:10020000FE00FE1F082983137E18831700080800CC
:100210000408FE0001308A007E088207003464343E
:1002200065346D346F34203473346F346634743411
:10023000203475346134723474340D340A3400342B
:10024000F2002A2972080A128A1109210A128A1157
:100250003421F20A72080A128A1109210A128A113B
:100260000038031908002229F300831203130C1E1F
:1002700035297308990008008130831699001811F8
:100280001812831298171816981283160C128C12D3
:1002900018138312181383169812981607138717CA
:1002A0000800831203138B1C57298B100615750841
:0C02B0008A0074088300FF0E7F0E090016
:02400E007A3FF7
:00000001FF
