:0600000000308A000E280A
:10000800FF00030883120313CE000A08CF000A1268
:100018008A11F028AC3084000030FE009830FF00D0
:100028001F208000840A0408F03A03192328FF0AD5
:100038000319FE0A14287E088A007F0882000A1223
:100048008A1126280B168B17831601170A128A1194
:10005800DC200A128A1130308400CF308312C900A4
:100068000408CA001530CB00490884000008CC00F9
:10007800C90A4A0884004C088000CA0ACB0B3828F1
:1000880024308400E430C9000408CA000C30CB00D6
:10009800490884000008CC00C90A4A0884004C08B2
:1000A8008000CA0ACB0B4C280C30A200A3011530E3
:1000B800A000A1016300C501C6014608803AC90035
:1000C8002108803A4902031D6B28200845020318BD
:1000D8007B2845088313303E840000080A128A11E1
:1000E800FB200A128A11C50A0319C60A612863008F
:1000F800C701C8014808803AC9002308803A490264
:10010800031D88282208470203185E28470883131E
:10011800243E840000080A128A11FB200A128A1160
:10012800C70A0319C80A7E288034203401340834E9
:100138003034333432343434303439343034323483
:10014800073408344A344F3448344E342034443465
:100158004F34453402340A3438343034303435348A
:100168003534353431343234313432347D34043436
:100178001234303439343334303431343234323464
:100188003434363430343934353435343534313424
:10019800323431343234513404340934303439345B
:1001A8003334303431343234323434345034123419
:1001B800813099001811181283129817181698127E
:1001C80083160C128C1218138312181383169812A4
:1001D80098160713871708008B180B1EF4288B1026
:1001E8004F088A004E088300FF0E7F0E0900CD00DD
:0A01F8000C1EFC284D0899000800B9
:02400E007A3FF7
:00000001FF
