:0600000000308A000C280C
:10000800FF000308F7000A08F8000A128A114D28B1
:100018000A128A110F280A128A112D200A128A112F
:100028008312031307150D30F600FB30F500F50BAE
:100038001B28F60B1B2820288312031307110D30E9
:10004800F600FB30F500F50B2728F60B27282C289F
:1000580014283A20FF308600870183128B150B1075
:100068000B168316011783128B170800CF308316DF
:1000780099001815181283129817181698128316D3
:100088000C128C12181383121813831698129816D0
:100098000800831203130B1C542806160B100711B3
:1000A8008B1C5C288B107410061974140130870699
:0E00B80078088A0077088300FF0E7F0E09008B
:02400E00793FF8
:00000001FF
