:0600000000308A000E280A
:10000800FF000308F8000A08F9007E08FA000A123F
:100018008A1194290A128A1111280A128A11412177
:100028002B300A128A11B4210A128A112130F300E6
:100038007630F200F20B1E28F30B1E2864000A1219
:100048008A11E72122300A128A11B4210A128A1170
:100058006F21F1000A128A11C8210A128A112A286E
:10020000FE00FE1F082983137E18831700080800CC
:100210000408FE0001308A007E0882070034693439
:100220006E347434203469346E347434653472340A
:10023000723475347034743420340D340A3400341C
:1002400072346234203469346E34743465347234F8
:10025000723475347034743420340D340A340034FC
:10026000773461346B346534753470340D340A344A
:100270000034733474346134723474340D340A3499
:1002800000348316FF3086008701502183128B15BE
:100290000B100B168316011783128B17013064297C
:1002A0001F309900181518128312981718169812F3
:1002B00083160C128C1218138312181383169812BB
:1002C0009816071387170800F400741C6B29831213
:1002D00003138715080083120313871108000619FA
:1002E0006F297330F600F7010130F602031CF703A3
:1002F00077087604031D742906196F290830F40065
:10030000F501E630F600F7010130F602031CF703B1
:1003100077087604031D8429031006190314F50CCD
:10032000F40B812975080800831203130B1CA12903
:1003300006160B10071112300A128A11CE210A126A
:100340008A118B1CAB298B107010061970140130A8
:100350000A128A11CE217A08FE0079088A007808EC
:100360008300FF0E7F0E0900F400BE2974080A12F4
:100370008A1109210A128A11C821F40A74080A1282
:100380008A1109210A128A11003803190800B629B6
:10039000F5000C1EC929750899000800FB007B08B0
:1003A0000A128A1109210A128A1100380319080059
:1003B0007B080A128A1109210A128A11E121FB0A1B
:1003C000CF29FC000C1EE2297C089900080083124A
:0803D000031307156300080088
:02400E007A3FF7
:00000001FF
